{
  "_format": "hh-sol-artifact-1",
  "contractName": "NFT1155",
  "sourceName": "contracts/erc1155.sol",
  "abi": [
    {
      "inputs": [],
      "stateMutability": "nonpayable",
      "type": "constructor"
    },
    {
      "inputs": [
        {
          "internalType": "address",
          "name": "sender",
          "type": "address"
        },
        {
          "internalType": "uint256",
          "name": "balance",
          "type": "uint256"
        },
        {
          "internalType": "uint256",
          "name": "needed",
          "type": "uint256"
        },
        {
          "internalType": "uint256",
          "name": "tokenId",
          "type": "uint256"
        }
      ],
      "name": "ERC1155InsufficientBalance",
      "type": "error"
    },
    {
      "inputs": [
        {
          "internalType": "address",
          "name": "approver",
          "type": "address"
        }
      ],
      "name": "ERC1155InvalidApprover",
      "type": "error"
    },
    {
      "inputs": [
        {
          "internalType": "uint256",
          "name": "idsLength",
          "type": "uint256"
        },
        {
          "internalType": "uint256",
          "name": "valuesLength",
          "type": "uint256"
        }
      ],
      "name": "ERC1155InvalidArrayLength",
      "type": "error"
    },
    {
      "inputs": [
        {
          "internalType": "address",
          "name": "operator",
          "type": "address"
        }
      ],
      "name": "ERC1155InvalidOperator",
      "type": "error"
    },
    {
      "inputs": [
        {
          "internalType": "address",
          "name": "receiver",
          "type": "address"
        }
      ],
      "name": "ERC1155InvalidReceiver",
      "type": "error"
    },
    {
      "inputs": [
        {
          "internalType": "address",
          "name": "sender",
          "type": "address"
        }
      ],
      "name": "ERC1155InvalidSender",
      "type": "error"
    },
    {
      "inputs": [
        {
          "internalType": "address",
          "name": "operator",
          "type": "address"
        },
        {
          "internalType": "address",
          "name": "owner",
          "type": "address"
        }
      ],
      "name": "ERC1155MissingApprovalForAll",
      "type": "error"
    },
    {
      "inputs": [
        {
          "internalType": "address",
          "name": "owner",
          "type": "address"
        }
      ],
      "name": "OwnableInvalidOwner",
      "type": "error"
    },
    {
      "inputs": [
        {
          "internalType": "address",
          "name": "account",
          "type": "address"
        }
      ],
      "name": "OwnableUnauthorizedAccount",
      "type": "error"
    },
    {
      "anonymous": false,
      "inputs": [
        {
          "indexed": true,
          "internalType": "address",
          "name": "account",
          "type": "address"
        },
        {
          "indexed": true,
          "internalType": "address",
          "name": "operator",
          "type": "address"
        },
        {
          "indexed": false,
          "internalType": "bool",
          "name": "approved",
          "type": "bool"
        }
      ],
      "name": "ApprovalForAll",
      "type": "event"
    },
    {
      "anonymous": false,
      "inputs": [
        {
          "indexed": false,
          "internalType": "uint256",
          "name": "tokenId",
          "type": "uint256"
        },
        {
          "indexed": false,
          "internalType": "address payable",
          "name": "creator",
          "type": "address"
        },
        {
          "indexed": false,
          "internalType": "uint256",
          "name": "price",
          "type": "uint256"
        },
        {
          "indexed": false,
          "internalType": "uint256",
          "name": "amount",
          "type": "uint256"
        }
      ],
      "name": "MarketItemCreated",
      "type": "event"
    },
    {
      "anonymous": false,
      "inputs": [
        {
          "indexed": true,
          "internalType": "address",
          "name": "previousOwner",
          "type": "address"
        },
        {
          "indexed": true,
          "internalType": "address",
          "name": "newOwner",
          "type": "address"
        }
      ],
      "name": "OwnershipTransferred",
      "type": "event"
    },
    {
      "anonymous": false,
      "inputs": [
        {
          "indexed": true,
          "internalType": "address",
          "name": "operator",
          "type": "address"
        },
        {
          "indexed": true,
          "internalType": "address",
          "name": "from",
          "type": "address"
        },
        {
          "indexed": true,
          "internalType": "address",
          "name": "to",
          "type": "address"
        },
        {
          "indexed": false,
          "internalType": "uint256[]",
          "name": "ids",
          "type": "uint256[]"
        },
        {
          "indexed": false,
          "internalType": "uint256[]",
          "name": "values",
          "type": "uint256[]"
        }
      ],
      "name": "TransferBatch",
      "type": "event"
    },
    {
      "anonymous": false,
      "inputs": [
        {
          "indexed": true,
          "internalType": "address",
          "name": "operator",
          "type": "address"
        },
        {
          "indexed": true,
          "internalType": "address",
          "name": "from",
          "type": "address"
        },
        {
          "indexed": true,
          "internalType": "address",
          "name": "to",
          "type": "address"
        },
        {
          "indexed": false,
          "internalType": "uint256",
          "name": "id",
          "type": "uint256"
        },
        {
          "indexed": false,
          "internalType": "uint256",
          "name": "value",
          "type": "uint256"
        }
      ],
      "name": "TransferSingle",
      "type": "event"
    },
    {
      "anonymous": false,
      "inputs": [
        {
          "indexed": false,
          "internalType": "string",
          "name": "value",
          "type": "string"
        },
        {
          "indexed": true,
          "internalType": "uint256",
          "name": "id",
          "type": "uint256"
        }
      ],
      "name": "URI",
      "type": "event"
    },
    {
      "inputs": [
        {
          "internalType": "address",
          "name": "account",
          "type": "address"
        },
        {
          "internalType": "uint256",
          "name": "id",
          "type": "uint256"
        }
      ],
      "name": "balanceOf",
      "outputs": [
        {
          "internalType": "uint256",
          "name": "",
          "type": "uint256"
        }
      ],
      "stateMutability": "view",
      "type": "function"
    },
    {
      "inputs": [
        {
          "internalType": "address[]",
          "name": "accounts",
          "type": "address[]"
        },
        {
          "internalType": "uint256[]",
          "name": "ids",
          "type": "uint256[]"
        }
      ],
      "name": "balanceOfBatch",
      "outputs": [
        {
          "internalType": "uint256[]",
          "name": "",
          "type": "uint256[]"
        }
      ],
      "stateMutability": "view",
      "type": "function"
    },
    {
      "inputs": [
        {
          "internalType": "uint256",
          "name": "tokenId",
          "type": "uint256"
        }
      ],
      "name": "createMarketSale",
      "outputs": [],
      "stateMutability": "payable",
      "type": "function"
    },
    {
      "inputs": [],
      "name": "fetchItemsListed",
      "outputs": [
        {
          "components": [
            {
              "internalType": "uint256",
              "name": "tokenId",
              "type": "uint256"
            },
            {
              "internalType": "address payable",
              "name": "creator",
              "type": "address"
            },
            {
              "internalType": "uint256",
              "name": "price",
              "type": "uint256"
            },
            {
              "internalType": "uint256",
              "name": "amount",
              "type": "uint256"
            },
            {
              "internalType": "string",
              "name": "tokenUri",
              "type": "string"
            }
          ],
          "internalType": "struct NFT1155.MarketItem[]",
          "name": "",
          "type": "tuple[]"
        }
      ],
      "stateMutability": "view",
      "type": "function"
    },
    {
      "inputs": [],
      "name": "fetchMarketItems",
      "outputs": [
        {
          "components": [
            {
              "internalType": "uint256",
              "name": "tokenId",
              "type": "uint256"
            },
            {
              "internalType": "address payable",
              "name": "creator",
              "type": "address"
            },
            {
              "internalType": "uint256",
              "name": "price",
              "type": "uint256"
            },
            {
              "internalType": "uint256",
              "name": "amount",
              "type": "uint256"
            },
            {
              "internalType": "string",
              "name": "tokenUri",
              "type": "string"
            }
          ],
          "internalType": "struct NFT1155.MarketItem[]",
          "name": "",
          "type": "tuple[]"
        }
      ],
      "stateMutability": "view",
      "type": "function"
    },
    {
      "inputs": [],
      "name": "fetchMyNFTs",
      "outputs": [
        {
          "components": [
            {
              "internalType": "uint256",
              "name": "tokenId",
              "type": "uint256"
            },
            {
              "internalType": "address payable",
              "name": "creator",
              "type": "address"
            },
            {
              "internalType": "uint256",
              "name": "price",
              "type": "uint256"
            },
            {
              "internalType": "uint256",
              "name": "amount",
              "type": "uint256"
            },
            {
              "internalType": "string",
              "name": "tokenUri",
              "type": "string"
            }
          ],
          "internalType": "struct NFT1155.MarketItem[]",
          "name": "",
          "type": "tuple[]"
        }
      ],
      "stateMutability": "view",
      "type": "function"
    },
    {
      "inputs": [
        {
          "internalType": "address",
          "name": "account",
          "type": "address"
        },
        {
          "internalType": "address",
          "name": "operator",
          "type": "address"
        }
      ],
      "name": "isApprovedForAll",
      "outputs": [
        {
          "internalType": "bool",
          "name": "",
          "type": "bool"
        }
      ],
      "stateMutability": "view",
      "type": "function"
    },
    {
      "inputs": [
        {
          "internalType": "string",
          "name": "tokenURI",
          "type": "string"
        },
        {
          "internalType": "uint256",
          "name": "amount",
          "type": "uint256"
        },
        {
          "internalType": "uint256",
          "name": "price",
          "type": "uint256"
        }
      ],
      "name": "mintToken",
      "outputs": [],
      "stateMutability": "nonpayable",
      "type": "function"
    },
    {
      "inputs": [
        {
          "internalType": "address",
          "name": "",
          "type": "address"
        },
        {
          "internalType": "address",
          "name": "",
          "type": "address"
        },
        {
          "internalType": "uint256",
          "name": "",
          "type": "uint256"
        },
        {
          "internalType": "uint256",
          "name": "",
          "type": "uint256"
        },
        {
          "internalType": "bytes",
          "name": "",
          "type": "bytes"
        }
      ],
      "name": "onERC1155Received",
      "outputs": [
        {
          "internalType": "bytes4",
          "name": "",
          "type": "bytes4"
        }
      ],
      "stateMutability": "pure",
      "type": "function"
    },
    {
      "inputs": [],
      "name": "owner",
      "outputs": [
        {
          "internalType": "address",
          "name": "",
          "type": "address"
        }
      ],
      "stateMutability": "view",
      "type": "function"
    },
    {
      "inputs": [],
      "name": "renounceOwnership",
      "outputs": [],
      "stateMutability": "nonpayable",
      "type": "function"
    },
    {
      "inputs": [
        {
          "internalType": "address",
          "name": "from",
          "type": "address"
        },
        {
          "internalType": "address",
          "name": "to",
          "type": "address"
        },
        {
          "internalType": "uint256[]",
          "name": "ids",
          "type": "uint256[]"
        },
        {
          "internalType": "uint256[]",
          "name": "values",
          "type": "uint256[]"
        },
        {
          "internalType": "bytes",
          "name": "data",
          "type": "bytes"
        }
      ],
      "name": "safeBatchTransferFrom",
      "outputs": [],
      "stateMutability": "nonpayable",
      "type": "function"
    },
    {
      "inputs": [
        {
          "internalType": "address",
          "name": "from",
          "type": "address"
        },
        {
          "internalType": "address",
          "name": "to",
          "type": "address"
        },
        {
          "internalType": "uint256",
          "name": "id",
          "type": "uint256"
        },
        {
          "internalType": "uint256",
          "name": "value",
          "type": "uint256"
        },
        {
          "internalType": "bytes",
          "name": "data",
          "type": "bytes"
        }
      ],
      "name": "safeTransferFrom",
      "outputs": [],
      "stateMutability": "nonpayable",
      "type": "function"
    },
    {
      "inputs": [
        {
          "internalType": "address",
          "name": "operator",
          "type": "address"
        },
        {
          "internalType": "bool",
          "name": "approved",
          "type": "bool"
        }
      ],
      "name": "setApprovalForAll",
      "outputs": [],
      "stateMutability": "nonpayable",
      "type": "function"
    },
    {
      "inputs": [
        {
          "internalType": "string",
          "name": "newuri",
          "type": "string"
        }
      ],
      "name": "setURI",
      "outputs": [],
      "stateMutability": "nonpayable",
      "type": "function"
    },
    {
      "inputs": [
        {
          "internalType": "bytes4",
          "name": "interfaceId",
          "type": "bytes4"
        }
      ],
      "name": "supportsInterface",
      "outputs": [
        {
          "internalType": "bool",
          "name": "",
          "type": "bool"
        }
      ],
      "stateMutability": "view",
      "type": "function"
    },
    {
      "inputs": [
        {
          "internalType": "address",
          "name": "newOwner",
          "type": "address"
        }
      ],
      "name": "transferOwnership",
      "outputs": [],
      "stateMutability": "nonpayable",
      "type": "function"
    },
    {
      "inputs": [
        {
          "internalType": "uint256",
          "name": "",
          "type": "uint256"
        }
      ],
      "name": "uri",
      "outputs": [
        {
          "internalType": "string",
          "name": "",
          "type": "string"
        }
      ],
      "stateMutability": "view",
      "type": "function"
    }
  ],
  "bytecode": "0x60806040523480156200001157600080fd5b5033604051806020016040528060008152506200003481620000c260201b60201c565b50600073ffffffffffffffffffffffffffffffffffffffff168173ffffffffffffffffffffffffffffffffffffffff1603620000aa5760006040517f1e4fbdf7000000000000000000000000000000000000000000000000000000008152600401620000a19190620001e2565b60405180910390fd5b620000bb81620000d760201b60201c565b5062000560565b8060029081620000d3919062000479565b5050565b6000600360009054906101000a900473ffffffffffffffffffffffffffffffffffffffff16905081600360006101000a81548173ffffffffffffffffffffffffffffffffffffffff021916908373ffffffffffffffffffffffffffffffffffffffff1602179055508173ffffffffffffffffffffffffffffffffffffffff168173ffffffffffffffffffffffffffffffffffffffff167f8be0079c531659141344cd1fd0a4f28419497f9722a3daafe3b4186f6b6457e060405160405180910390a35050565b600073ffffffffffffffffffffffffffffffffffffffff82169050919050565b6000620001ca826200019d565b9050919050565b620001dc81620001bd565b82525050565b6000602082019050620001f96000830184620001d1565b92915050565b600081519050919050565b7f4e487b7100000000000000000000000000000000000000000000000000000000600052604160045260246000fd5b7f4e487b7100000000000000000000000000000000000000000000000000000000600052602260045260246000fd5b600060028204905060018216806200028157607f821691505b60208210810362000297576200029662000239565b5b50919050565b60008190508160005260206000209050919050565b60006020601f8301049050919050565b600082821b905092915050565b600060088302620003017fffffffffffffffffffffffffffffffffffffffffffffffffffffffffffffffff82620002c2565b6200030d8683620002c2565b95508019841693508086168417925050509392505050565b6000819050919050565b6000819050919050565b60006200035a620003546200034e8462000325565b6200032f565b62000325565b9050919050565b6000819050919050565b620003768362000339565b6200038e620003858262000361565b848454620002cf565b825550505050565b600090565b620003a562000396565b620003b28184846200036b565b505050565b5b81811015620003da57620003ce6000826200039b565b600181019050620003b8565b5050565b601f8211156200042957620003f3816200029d565b620003fe84620002b2565b810160208510156200040e578190505b620004266200041d85620002b2565b830182620003b7565b50505b505050565b600082821c905092915050565b60006200044e600019846008026200042e565b1980831691505092915050565b60006200046983836200043b565b9150826002028217905092915050565b6200048482620001ff565b67ffffffffffffffff811115620004a0576200049f6200020a565b5b620004ac825462000268565b620004b9828285620003de565b600060209050601f831160018114620004f15760008415620004dc578287015190505b620004e885826200045b565b86555062000558565b601f19841662000501866200029d565b60005b828110156200052b5784890151825560018201915060208501945060208101905062000504565b868310156200054b578489015162000547601f8916826200043b565b8355505b6001600288020188555050505b505050505050565b613b2b80620005706000396000f3fe6080604052600436106101085760003560e01c8063715018a611610095578063e376562011610064578063e37656201461035b578063e985e9c514610384578063f23a6e61146103c1578063f242432a146103fe578063f2fde38b1461042757610108565b8063715018a6146102d45780638da5cb5b146102eb578063a22cb46514610316578063be9af5361461033f57610108565b80630f08efe0116100dc5780630f08efe0146101ed578063202e3740146102185780632eb2c2d61461024357806345f8fa801461026c5780634e1273f41461029757610108565b8062fdd58e1461010d57806301ffc9a71461014a57806302fe5305146101875780630e89341c146101b0575b600080fd5b34801561011957600080fd5b50610134600480360381019061012f9190612544565b610450565b6040516101419190612593565b60405180910390f35b34801561015657600080fd5b50610171600480360381019061016c9190612606565b6104aa565b60405161017e919061264e565b60405180910390f35b34801561019357600080fd5b506101ae60048036038101906101a991906127af565b61058c565b005b3480156101bc57600080fd5b506101d760048036038101906101d291906127f8565b6105a0565b6040516101e491906128a4565b60405180910390f35b3480156101f957600080fd5b50610202610634565b60405161020f9190612a78565b60405180910390f35b34801561022457600080fd5b5061022d61080f565b60405161023a9190612a78565b60405180910390f35b34801561024f57600080fd5b5061026a60048036038101906102659190612c03565b610add565b005b34801561027857600080fd5b50610281610b85565b60405161028e9190612a78565b60405180910390f35b3480156102a357600080fd5b506102be60048036038101906102b99190612d95565b610e5f565b6040516102cb9190612ebc565b60405180910390f35b3480156102e057600080fd5b506102e9610f68565b005b3480156102f757600080fd5b50610300610f7c565b60405161030d9190612eed565b60405180910390f35b34801561032257600080fd5b5061033d60048036038101906103389190612f34565b610fa6565b005b610359600480360381019061035491906127f8565b610fbc565b005b34801561036757600080fd5b50610382600480360381019061037d9190612f74565b6112b1565b005b34801561039057600080fd5b506103ab60048036038101906103a69190612fe3565b611449565b6040516103b8919061264e565b60405180910390f35b3480156103cd57600080fd5b506103e860048036038101906103e3919061307e565b6114dd565b6040516103f59190613127565b60405180910390f35b34801561040a57600080fd5b5061042560048036038101906104209190613142565b61150c565b005b34801561043357600080fd5b5061044e600480360381019061044991906131d9565b6115b4565b005b600080600083815260200190815260200160002060008473ffffffffffffffffffffffffffffffffffffffff1673ffffffffffffffffffffffffffffffffffffffff16815260200190815260200160002054905092915050565b60007fd9b67a26000000000000000000000000000000000000000000000000000000007bffffffffffffffffffffffffffffffffffffffffffffffffffffffff1916827bffffffffffffffffffffffffffffffffffffffffffffffffffffffff1916148061057557507f0e89341c000000000000000000000000000000000000000000000000000000007bffffffffffffffffffffffffffffffffffffffffffffffffffffffff1916827bffffffffffffffffffffffffffffffffffffffffffffffffffffffff1916145b8061058557506105848261163a565b5b9050919050565b6105946116a4565b61059d8161172b565b50565b6060600280546105af90613235565b80601f01602080910402602001604051908101604052809291908181526020018280546105db90613235565b80156106285780601f106105fd57610100808354040283529160200191610628565b820191906000526020600020905b81548152906001019060200180831161060b57829003601f168201915b50505050509050919050565b6060600060045490506000808267ffffffffffffffff81111561065a57610659612684565b5b60405190808252806020026020018201604052801561069357816020015b610680612457565b8152602001906001900390816106785790505b50905060005b83811015610805576000600760008381526020019081526020016000209050806040518060a0016040529081600082015481526020016001820160009054906101000a900473ffffffffffffffffffffffffffffffffffffffff1673ffffffffffffffffffffffffffffffffffffffff1673ffffffffffffffffffffffffffffffffffffffff168152602001600282015481526020016003820154815260200160048201805461074890613235565b80601f016020809104026020016040519081016040528092919081815260200182805461077490613235565b80156107c15780601f10610796576101008083540402835291602001916107c1565b820191906000526020600020905b8154815290600101906020018083116107a457829003601f168201915b5050505050815250508385815181106107dd576107dc613266565b5b60200260200101819052506001846107f591906132c4565b9350508080600101915050610699565b5080935050505090565b60606000600454905060008060005b838110156108a657600860003373ffffffffffffffffffffffffffffffffffffffff1673ffffffffffffffffffffffffffffffffffffffff168152602001908152602001600020600082815260200190815260200160002060009054906101000a900460ff16156108995760018361089691906132c4565b92505b808060010191505061081e565b5060008267ffffffffffffffff8111156108c3576108c2612684565b5b6040519080825280602002602001820160405280156108fc57816020015b6108e9612457565b8152602001906001900390816108e15790505b50905060005b84811015610ad257600860003373ffffffffffffffffffffffffffffffffffffffff1673ffffffffffffffffffffffffffffffffffffffff168152602001908152602001600020600082815260200190815260200160002060009054906101000a900460ff1615610ac5576000600760008381526020019081526020016000209050806040518060a0016040529081600082015481526020016001820160009054906101000a900473ffffffffffffffffffffffffffffffffffffffff1673ffffffffffffffffffffffffffffffffffffffff1673ffffffffffffffffffffffffffffffffffffffff1681526020016002820154815260200160038201548152602001600482018054610a1490613235565b80601f0160208091040260200160405190810160405280929190818152602001828054610a4090613235565b8015610a8d5780601f10610a6257610100808354040283529160200191610a8d565b820191906000526020600020905b815481529060010190602001808311610a7057829003601f168201915b505050505081525050838581518110610aa957610aa8613266565b5b6020026020010181905250600184610ac191906132c4565b9350505b8080600101915050610902565b508094505050505090565b6000610ae761173e565b90508073ffffffffffffffffffffffffffffffffffffffff168673ffffffffffffffffffffffffffffffffffffffff1614158015610b2c5750610b2a8682611449565b155b15610b705780866040517fe237d922000000000000000000000000000000000000000000000000000000008152600401610b679291906132f8565b60405180910390fd5b610b7d8686868686611746565b505050505050565b60606000600454905060008060005b83811015610c22573373ffffffffffffffffffffffffffffffffffffffff166007600083815260200190815260200160002060010160009054906101000a900473ffffffffffffffffffffffffffffffffffffffff1673ffffffffffffffffffffffffffffffffffffffff1603610c1557600183610c1291906132c4565b92505b8080600101915050610b94565b5060008267ffffffffffffffff811115610c3f57610c3e612684565b5b604051908082528060200260200182016040528015610c7857816020015b610c65612457565b815260200190600190039081610c5d5790505b50905060005b84811015610e54573373ffffffffffffffffffffffffffffffffffffffff166007600083815260200190815260200160002060010160009054906101000a900473ffffffffffffffffffffffffffffffffffffffff1673ffffffffffffffffffffffffffffffffffffffff1603610e47576000600760008381526020019081526020016000209050806040518060a0016040529081600082015481526020016001820160009054906101000a900473ffffffffffffffffffffffffffffffffffffffff1673ffffffffffffffffffffffffffffffffffffffff1673ffffffffffffffffffffffffffffffffffffffff1681526020016002820154815260200160038201548152602001600482018054610d9690613235565b80601f0160208091040260200160405190810160405280929190818152602001828054610dc290613235565b8015610e0f5780601f10610de457610100808354040283529160200191610e0f565b820191906000526020600020905b815481529060010190602001808311610df257829003601f168201915b505050505081525050838581518110610e2b57610e2a613266565b5b6020026020010181905250600184610e4391906132c4565b9350505b8080600101915050610c7e565b508094505050505090565b60608151835114610eab57815183516040517f5b059991000000000000000000000000000000000000000000000000000000008152600401610ea2929190613321565b60405180910390fd5b6000835167ffffffffffffffff811115610ec857610ec7612684565b5b604051908082528060200260200182016040528015610ef65781602001602082028036833780820191505090505b50905060005b8451811015610f5d57610f33610f1b828761183e90919063ffffffff16565b610f2e838761185290919063ffffffff16565b610450565b828281518110610f4657610f45613266565b5b602002602001018181525050806001019050610efc565b508091505092915050565b610f706116a4565b610f7a6000611866565b565b6000600360009054906101000a900473ffffffffffffffffffffffffffffffffffffffff16905090565b610fb8610fb161173e565b838361192c565b5050565b60006007600083815260200190815260200160002060020154905060006007600084815260200190815260200160002060030154905060006007600085815260200190815260200160002060010160009054906101000a900473ffffffffffffffffffffffffffffffffffffffff16905060018211611070576040517f08c379a000000000000000000000000000000000000000000000000000000000815260040161106790613396565b60405180910390fd5b823410156110b3576040517f08c379a00000000000000000000000000000000000000000000000000000000081526004016110aa90613428565b60405180910390fd5b600860003373ffffffffffffffffffffffffffffffffffffffff1673ffffffffffffffffffffffffffffffffffffffff168152602001908152602001600020600085815260200190815260200160002060009054906101000a900460ff1615611151576040517f08c379a000000000000000000000000000000000000000000000000000000000815260040161114890613494565b60405180910390fd5b6001600860003373ffffffffffffffffffffffffffffffffffffffff1673ffffffffffffffffffffffffffffffffffffffff168152602001908152602001600020600086815260200190815260200160002060006101000a81548160ff0219169083151502179055506001826111c791906134b4565b60076000868152602001908152602001600020600301819055506111fe81338660016040518060200160405280600081525061150c565b60008173ffffffffffffffffffffffffffffffffffffffff163460405161122490613519565b60006040518083038185875af1925050503d8060008114611261576040519150601f19603f3d011682016040523d82523d6000602084013e611266565b606091505b50509050806112aa576040517f08c379a00000000000000000000000000000000000000000000000000000000081526004016112a19061357a565b60405180910390fd5b5050505050565b600081116112f4576040517f08c379a00000000000000000000000000000000000000000000000000000000081526004016112eb906135e6565b60405180910390fd5b6004600081548092919061130790613606565b91905055506000600454905061132e33828560405180602001604052806000815250611a9c565b6113388185611b35565b6040518060a001604052808281526020013373ffffffffffffffffffffffffffffffffffffffff16815260200183815260200184815260200185815250600760008381526020019081526020016000206000820151816000015560208201518160010160006101000a81548173ffffffffffffffffffffffffffffffffffffffff021916908373ffffffffffffffffffffffffffffffffffffffff1602179055506040820151816002015560608201518160030155608082015181600401908161140291906137fa565b509050507fd0058778bf0543e8ed74ab7fc87f778020d312d616ad6f98b80bc8eb521589bb8133848660405161143b94939291906138db565b60405180910390a150505050565b6000600160008473ffffffffffffffffffffffffffffffffffffffff1673ffffffffffffffffffffffffffffffffffffffff16815260200190815260200160002060008373ffffffffffffffffffffffffffffffffffffffff1673ffffffffffffffffffffffffffffffffffffffff16815260200190815260200160002060009054906101000a900460ff16905092915050565b60007ff23a6e612e1ff4830e658fe43f4e3cb4a5f8170bd5d9e69fb5d7a7fa9e4fdf9790509695505050505050565b600061151661173e565b90508073ffffffffffffffffffffffffffffffffffffffff168673ffffffffffffffffffffffffffffffffffffffff161415801561155b57506115598682611449565b155b1561159f5780866040517fe237d9220000000000000000000000000000000000000000000000000000000081526004016115969291906132f8565b60405180910390fd5b6115ac8686868686611b5a565b505050505050565b6115bc6116a4565b600073ffffffffffffffffffffffffffffffffffffffff168173ffffffffffffffffffffffffffffffffffffffff160361162e5760006040517f1e4fbdf70000000000000000000000000000000000000000000000000000000081526004016116259190612eed565b60405180910390fd5b61163781611866565b50565b60007f01ffc9a7000000000000000000000000000000000000000000000000000000007bffffffffffffffffffffffffffffffffffffffffffffffffffffffff1916827bffffffffffffffffffffffffffffffffffffffffffffffffffffffff1916149050919050565b6116ac61173e565b73ffffffffffffffffffffffffffffffffffffffff166116ca610f7c565b73ffffffffffffffffffffffffffffffffffffffff1614611729576116ed61173e565b6040517f118cdaa70000000000000000000000000000000000000000000000000000000081526004016117209190612eed565b60405180910390fd5b565b806002908161173a91906137fa565b5050565b600033905090565b600073ffffffffffffffffffffffffffffffffffffffff168473ffffffffffffffffffffffffffffffffffffffff16036117b85760006040517f57f447ce0000000000000000000000000000000000000000000000000000000081526004016117af9190612eed565b60405180910390fd5b600073ffffffffffffffffffffffffffffffffffffffff168573ffffffffffffffffffffffffffffffffffffffff160361182a5760006040517f01a835140000000000000000000000000000000000000000000000000000000081526004016118219190612eed565b60405180910390fd5b6118378585858585611c65565b5050505050565b600060208202602084010151905092915050565b600060208202602084010151905092915050565b6000600360009054906101000a900473ffffffffffffffffffffffffffffffffffffffff16905081600360006101000a81548173ffffffffffffffffffffffffffffffffffffffff021916908373ffffffffffffffffffffffffffffffffffffffff1602179055508173ffffffffffffffffffffffffffffffffffffffff168173ffffffffffffffffffffffffffffffffffffffff167f8be0079c531659141344cd1fd0a4f28419497f9722a3daafe3b4186f6b6457e060405160405180910390a35050565b600073ffffffffffffffffffffffffffffffffffffffff168273ffffffffffffffffffffffffffffffffffffffff160361199e5760006040517fced3e1000000000000000000000000000000000000000000000000000000000081526004016119959190612eed565b60405180910390fd5b80600160008573ffffffffffffffffffffffffffffffffffffffff1673ffffffffffffffffffffffffffffffffffffffff16815260200190815260200160002060008473ffffffffffffffffffffffffffffffffffffffff1673ffffffffffffffffffffffffffffffffffffffff16815260200190815260200160002060006101000a81548160ff0219169083151502179055508173ffffffffffffffffffffffffffffffffffffffff168373ffffffffffffffffffffffffffffffffffffffff167f17307eab39ab6107e8899845ad3d59bd9653f200f220920489ca2b5937696c3183604051611a8f919061264e565b60405180910390a3505050565b600073ffffffffffffffffffffffffffffffffffffffff168473ffffffffffffffffffffffffffffffffffffffff1603611b0e5760006040517f57f447ce000000000000000000000000000000000000000000000000000000008152600401611b059190612eed565b60405180910390fd5b600080611b1b8585611d17565b91509150611b2d600087848487611c65565b505050505050565b80600660008481526020019081526020016000209081611b5591906137fa565b505050565b600073ffffffffffffffffffffffffffffffffffffffff168473ffffffffffffffffffffffffffffffffffffffff1603611bcc5760006040517f57f447ce000000000000000000000000000000000000000000000000000000008152600401611bc39190612eed565b60405180910390fd5b600073ffffffffffffffffffffffffffffffffffffffff168573ffffffffffffffffffffffffffffffffffffffff1603611c3e5760006040517f01a83514000000000000000000000000000000000000000000000000000000008152600401611c359190612eed565b60405180910390fd5b600080611c4b8585611d17565b91509150611c5c8787848487611c65565b50505050505050565b611c7185858585611d47565b600073ffffffffffffffffffffffffffffffffffffffff168473ffffffffffffffffffffffffffffffffffffffff1614611d10576000611caf61173e565b90506001845103611cff576000611cd060008661185290919063ffffffff16565b90506000611ce860008661185290919063ffffffff16565b9050611cf88389898585896120ef565b5050611d0e565b611d0d8187878787876122a3565b5b505b5050505050565b60608060405191506001825283602083015260408201905060018152826020820152604081016040529250929050565b8051825114611d9157815181516040517f5b059991000000000000000000000000000000000000000000000000000000008152600401611d88929190613321565b60405180910390fd5b6000611d9b61173e565b905060005b8351811015611faa576000611dbe828661185290919063ffffffff16565b90506000611dd5838661185290919063ffffffff16565b9050600073ffffffffffffffffffffffffffffffffffffffff168873ffffffffffffffffffffffffffffffffffffffff1614611f0257600080600084815260200190815260200160002060008a73ffffffffffffffffffffffffffffffffffffffff1673ffffffffffffffffffffffffffffffffffffffff16815260200190815260200160002054905081811015611eaa57888183856040517f03dee4c5000000000000000000000000000000000000000000000000000000008152600401611ea19493929190613920565b60405180910390fd5b81810360008085815260200190815260200160002060008b73ffffffffffffffffffffffffffffffffffffffff1673ffffffffffffffffffffffffffffffffffffffff16815260200190815260200160002081905550505b600073ffffffffffffffffffffffffffffffffffffffff168773ffffffffffffffffffffffffffffffffffffffff1614611f9d578060008084815260200190815260200160002060008973ffffffffffffffffffffffffffffffffffffffff1673ffffffffffffffffffffffffffffffffffffffff1681526020019081526020016000206000828254611f9591906132c4565b925050819055505b5050806001019050611da0565b506001835103612069576000611fca60008561185290919063ffffffff16565b90506000611fe260008561185290919063ffffffff16565b90508573ffffffffffffffffffffffffffffffffffffffff168773ffffffffffffffffffffffffffffffffffffffff168473ffffffffffffffffffffffffffffffffffffffff167fc3d58168c5ae7397731d063d5bbf3d657854427343f4c083240f7aacaa2d0f62858560405161205a929190613321565b60405180910390a450506120e8565b8373ffffffffffffffffffffffffffffffffffffffff168573ffffffffffffffffffffffffffffffffffffffff168273ffffffffffffffffffffffffffffffffffffffff167f4a39dc06d4c0dbc64b70af90fd698a233a518aa5d07e595d983b8c0526c8f7fb86866040516120df929190613965565b60405180910390a45b5050505050565b60008473ffffffffffffffffffffffffffffffffffffffff163b111561229b578373ffffffffffffffffffffffffffffffffffffffff1663f23a6e6187878686866040518663ffffffff1660e01b81526004016121509594939291906139f1565b6020604051808303816000875af192505050801561218c57506040513d601f19601f820116820180604052508101906121899190613a60565b60015b612210573d80600081146121bc576040519150601f19603f3d011682016040523d82523d6000602084013e6121c1565b606091505b50600081510361220857846040517f57f447ce0000000000000000000000000000000000000000000000000000000081526004016121ff9190612eed565b60405180910390fd5b805181602001fd5b63f23a6e6160e01b7bffffffffffffffffffffffffffffffffffffffffffffffffffffffff1916817bffffffffffffffffffffffffffffffffffffffffffffffffffffffff19161461229957846040517f57f447ce0000000000000000000000000000000000000000000000000000000081526004016122909190612eed565b60405180910390fd5b505b505050505050565b60008473ffffffffffffffffffffffffffffffffffffffff163b111561244f578373ffffffffffffffffffffffffffffffffffffffff1663bc197c8187878686866040518663ffffffff1660e01b8152600401612304959493929190613a8d565b6020604051808303816000875af192505050801561234057506040513d601f19601f8201168201806040525081019061233d9190613a60565b60015b6123c4573d8060008114612370576040519150601f19603f3d011682016040523d82523d6000602084013e612375565b606091505b5060008151036123bc57846040517f57f447ce0000000000000000000000000000000000000000000000000000000081526004016123b39190612eed565b60405180910390fd5b805181602001fd5b63bc197c8160e01b7bffffffffffffffffffffffffffffffffffffffffffffffffffffffff1916817bffffffffffffffffffffffffffffffffffffffffffffffffffffffff19161461244d57846040517f57f447ce0000000000000000000000000000000000000000000000000000000081526004016124449190612eed565b60405180910390fd5b505b505050505050565b6040518060a0016040528060008152602001600073ffffffffffffffffffffffffffffffffffffffff1681526020016000815260200160008152602001606081525090565b6000604051905090565b600080fd5b600080fd5b600073ffffffffffffffffffffffffffffffffffffffff82169050919050565b60006124db826124b0565b9050919050565b6124eb816124d0565b81146124f657600080fd5b50565b600081359050612508816124e2565b92915050565b6000819050919050565b6125218161250e565b811461252c57600080fd5b50565b60008135905061253e81612518565b92915050565b6000806040838503121561255b5761255a6124a6565b5b6000612569858286016124f9565b925050602061257a8582860161252f565b9150509250929050565b61258d8161250e565b82525050565b60006020820190506125a86000830184612584565b92915050565b60007fffffffff0000000000000000000000000000000000000000000000000000000082169050919050565b6125e3816125ae565b81146125ee57600080fd5b50565b600081359050612600816125da565b92915050565b60006020828403121561261c5761261b6124a6565b5b600061262a848285016125f1565b91505092915050565b60008115159050919050565b61264881612633565b82525050565b6000602082019050612663600083018461263f565b92915050565b600080fd5b600080fd5b6000601f19601f8301169050919050565b7f4e487b7100000000000000000000000000000000000000000000000000000000600052604160045260246000fd5b6126bc82612673565b810181811067ffffffffffffffff821117156126db576126da612684565b5b80604052505050565b60006126ee61249c565b90506126fa82826126b3565b919050565b600067ffffffffffffffff82111561271a57612719612684565b5b61272382612673565b9050602081019050919050565b82818337600083830152505050565b600061275261274d846126ff565b6126e4565b90508281526020810184848401111561276e5761276d61266e565b5b612779848285612730565b509392505050565b600082601f83011261279657612795612669565b5b81356127a684826020860161273f565b91505092915050565b6000602082840312156127c5576127c46124a6565b5b600082013567ffffffffffffffff8111156127e3576127e26124ab565b5b6127ef84828501612781565b91505092915050565b60006020828403121561280e5761280d6124a6565b5b600061281c8482850161252f565b91505092915050565b600081519050919050565b600082825260208201905092915050565b60005b8381101561285f578082015181840152602081019050612844565b60008484015250505050565b600061287682612825565b6128808185612830565b9350612890818560208601612841565b61289981612673565b840191505092915050565b600060208201905081810360008301526128be818461286b565b905092915050565b600081519050919050565b600082825260208201905092915050565b6000819050602082019050919050565b6128fb8161250e565b82525050565b600061290c826124b0565b9050919050565b61291c81612901565b82525050565b600082825260208201905092915050565b600061293e82612825565b6129488185612922565b9350612958818560208601612841565b61296181612673565b840191505092915050565b600060a08301600083015161298460008601826128f2565b5060208301516129976020860182612913565b5060408301516129aa60408601826128f2565b5060608301516129bd60608601826128f2565b50608083015184820360808601526129d58282612933565b9150508091505092915050565b60006129ee838361296c565b905092915050565b6000602082019050919050565b6000612a0e826128c6565b612a1881856128d1565b935083602082028501612a2a856128e2565b8060005b85811015612a665784840389528151612a4785826129e2565b9450612a52836129f6565b925060208a01995050600181019050612a2e565b50829750879550505050505092915050565b60006020820190508181036000830152612a928184612a03565b905092915050565b600067ffffffffffffffff821115612ab557612ab4612684565b5b602082029050602081019050919050565b600080fd5b6000612ade612ad984612a9a565b6126e4565b90508083825260208201905060208402830185811115612b0157612b00612ac6565b5b835b81811015612b2a5780612b16888261252f565b845260208401935050602081019050612b03565b5050509392505050565b600082601f830112612b4957612b48612669565b5b8135612b59848260208601612acb565b91505092915050565b600067ffffffffffffffff821115612b7d57612b7c612684565b5b612b8682612673565b9050602081019050919050565b6000612ba6612ba184612b62565b6126e4565b905082815260208101848484011115612bc257612bc161266e565b5b612bcd848285612730565b509392505050565b600082601f830112612bea57612be9612669565b5b8135612bfa848260208601612b93565b91505092915050565b600080600080600060a08688031215612c1f57612c1e6124a6565b5b6000612c2d888289016124f9565b9550506020612c3e888289016124f9565b945050604086013567ffffffffffffffff811115612c5f57612c5e6124ab565b5b612c6b88828901612b34565b935050606086013567ffffffffffffffff811115612c8c57612c8b6124ab565b5b612c9888828901612b34565b925050608086013567ffffffffffffffff811115612cb957612cb86124ab565b5b612cc588828901612bd5565b9150509295509295909350565b600067ffffffffffffffff821115612ced57612cec612684565b5b602082029050602081019050919050565b6000612d11612d0c84612cd2565b6126e4565b90508083825260208201905060208402830185811115612d3457612d33612ac6565b5b835b81811015612d5d5780612d4988826124f9565b845260208401935050602081019050612d36565b5050509392505050565b600082601f830112612d7c57612d7b612669565b5b8135612d8c848260208601612cfe565b91505092915050565b60008060408385031215612dac57612dab6124a6565b5b600083013567ffffffffffffffff811115612dca57612dc96124ab565b5b612dd685828601612d67565b925050602083013567ffffffffffffffff811115612df757612df66124ab565b5b612e0385828601612b34565b9150509250929050565b600081519050919050565b600082825260208201905092915050565b6000819050602082019050919050565b6000612e4583836128f2565b60208301905092915050565b6000602082019050919050565b6000612e6982612e0d565b612e738185612e18565b9350612e7e83612e29565b8060005b83811015612eaf578151612e968882612e39565b9750612ea183612e51565b925050600181019050612e82565b5085935050505092915050565b60006020820190508181036000830152612ed68184612e5e565b905092915050565b612ee7816124d0565b82525050565b6000602082019050612f026000830184612ede565b92915050565b612f1181612633565b8114612f1c57600080fd5b50565b600081359050612f2e81612f08565b92915050565b60008060408385031215612f4b57612f4a6124a6565b5b6000612f59858286016124f9565b9250506020612f6a85828601612f1f565b9150509250929050565b600080600060608486031215612f8d57612f8c6124a6565b5b600084013567ffffffffffffffff811115612fab57612faa6124ab565b5b612fb786828701612781565b9350506020612fc88682870161252f565b9250506040612fd98682870161252f565b9150509250925092565b60008060408385031215612ffa57612ff96124a6565b5b6000613008858286016124f9565b9250506020613019858286016124f9565b9150509250929050565b600080fd5b60008083601f84011261303e5761303d612669565b5b8235905067ffffffffffffffff81111561305b5761305a613023565b5b60208301915083600182028301111561307757613076612ac6565b5b9250929050565b60008060008060008060a0878903121561309b5761309a6124a6565b5b60006130a989828a016124f9565b96505060206130ba89828a016124f9565b95505060406130cb89828a0161252f565b94505060606130dc89828a0161252f565b935050608087013567ffffffffffffffff8111156130fd576130fc6124ab565b5b61310989828a01613028565b92509250509295509295509295565b613121816125ae565b82525050565b600060208201905061313c6000830184613118565b92915050565b600080600080600060a0868803121561315e5761315d6124a6565b5b600061316c888289016124f9565b955050602061317d888289016124f9565b945050604061318e8882890161252f565b935050606061319f8882890161252f565b925050608086013567ffffffffffffffff8111156131c0576131bf6124ab565b5b6131cc88828901612bd5565b9150509295509295909350565b6000602082840312156131ef576131ee6124a6565b5b60006131fd848285016124f9565b91505092915050565b7f4e487b7100000000000000000000000000000000000000000000000000000000600052602260045260246000fd5b6000600282049050600182168061324d57607f821691505b6020821081036132605761325f613206565b5b50919050565b7f4e487b7100000000000000000000000000000000000000000000000000000000600052603260045260246000fd5b7f4e487b7100000000000000000000000000000000000000000000000000000000600052601160045260246000fd5b60006132cf8261250e565b91506132da8361250e565b92508282019050808211156132f2576132f1613295565b5b92915050565b600060408201905061330d6000830185612ede565b61331a6020830184612ede565b9392505050565b60006040820190506133366000830185612584565b6133436020830184612584565b9392505050565b7f54686973204d4e465420697320736f6c64206f75740000000000000000000000600082015250565b6000613380601583612830565b915061338b8261334a565b602082019050919050565b600060208201905081810360008301526133af81613373565b9050919050565b7f506c65617365207375626d6974207468652061736b696e67207072696365206960008201527f6e206f7264657220746f20636f6d706c65746520746865207075726368617365602082015250565b6000613412604083612830565b915061341d826133b6565b604082019050919050565b6000602082019050818103600083015261344181613405565b9050919050565b7f596f7520616c7265616479206f776e2074686973204e46540000000000000000600082015250565b600061347e601883612830565b915061348982613448565b602082019050919050565b600060208201905081810360008301526134ad81613471565b9050919050565b60006134bf8261250e565b91506134ca8361250e565b92508282039050818111156134e2576134e1613295565b5b92915050565b600081905092915050565b50565b60006135036000836134e8565b915061350e826134f3565b600082019050919050565b6000613524826134f6565b9150819050919050565b7f457468206e6f742073656e7420746f2063726561746f72000000000000000000600082015250565b6000613564601783612830565b915061356f8261352e565b602082019050919050565b6000602082019050818103600083015261359381613557565b9050919050565b7f5072696365206d757374206265206174206c6561737420312077656900000000600082015250565b60006135d0601c83612830565b91506135db8261359a565b602082019050919050565b600060208201905081810360008301526135ff816135c3565b9050919050565b60006136118261250e565b91507fffffffffffffffffffffffffffffffffffffffffffffffffffffffffffffffff820361364357613642613295565b5b600182019050919050565b60008190508160005260206000209050919050565b60006020601f8301049050919050565b600082821b905092915050565b6000600883026136b07fffffffffffffffffffffffffffffffffffffffffffffffffffffffffffffffff82613673565b6136ba8683613673565b95508019841693508086168417925050509392505050565b6000819050919050565b60006136f76136f26136ed8461250e565b6136d2565b61250e565b9050919050565b6000819050919050565b613711836136dc565b61372561371d826136fe565b848454613680565b825550505050565b600090565b61373a61372d565b613745818484613708565b505050565b5b818110156137695761375e600082613732565b60018101905061374b565b5050565b601f8211156137ae5761377f8161364e565b61378884613663565b81016020851015613797578190505b6137ab6137a385613663565b83018261374a565b50505b505050565b600082821c905092915050565b60006137d1600019846008026137b3565b1980831691505092915050565b60006137ea83836137c0565b9150826002028217905092915050565b61380382612825565b67ffffffffffffffff81111561381c5761381b612684565b5b6138268254613235565b61383182828561376d565b600060209050601f8311600181146138645760008415613852578287015190505b61385c85826137de565b8655506138c4565b601f1984166138728661364e565b60005b8281101561389a57848901518255600182019150602085019450602081019050613875565b868310156138b757848901516138b3601f8916826137c0565b8355505b6001600288020188555050505b505050505050565b6138d581612901565b82525050565b60006080820190506138f06000830187612584565b6138fd60208301866138cc565b61390a6040830185612584565b6139176060830184612584565b95945050505050565b60006080820190506139356000830187612ede565b6139426020830186612584565b61394f6040830185612584565b61395c6060830184612584565b95945050505050565b6000604082019050818103600083015261397f8185612e5e565b905081810360208301526139938184612e5e565b90509392505050565b600081519050919050565b600082825260208201905092915050565b60006139c38261399c565b6139cd81856139a7565b93506139dd818560208601612841565b6139e681612673565b840191505092915050565b600060a082019050613a066000830188612ede565b613a136020830187612ede565b613a206040830186612584565b613a2d6060830185612584565b8181036080830152613a3f81846139b8565b90509695505050505050565b600081519050613a5a816125da565b92915050565b600060208284031215613a7657613a756124a6565b5b6000613a8484828501613a4b565b91505092915050565b600060a082019050613aa26000830188612ede565b613aaf6020830187612ede565b8181036040830152613ac18186612e5e565b90508181036060830152613ad58185612e5e565b90508181036080830152613ae981846139b8565b9050969550505050505056fea2646970667358221220e9345806fb38c41e87b765a20b6e3e4636f8dba4da1cbf01c20cd54a2ce1d41f64736f6c63430008180033",
  "linkReferences": {},
  "deployedLinkReferences": {}
}